{
  "contractName": "Adoption",
  "abi": [
    {
      "constant": false,
      "inputs": [
        {
          "name": "_hashcode",
          "type": "string"
        }
      ],
      "name": "saveHashcode",
      "outputs": [],
      "payable": false,
      "stateMutability": "nonpayable",
      "type": "function"
    },
    {
      "constant": true,
      "inputs": [
        {
          "name": "_address",
          "type": "address"
        }
      ],
      "name": "getHashcode",
      "outputs": [
        {
          "name": "",
          "type": "string"
        }
      ],
      "payable": false,
      "stateMutability": "view",
      "type": "function"
    },
    {
      "constant": true,
      "inputs": [
        {
          "name": "",
          "type": "uint256"
        }
      ],
      "name": "ManAccts",
      "outputs": [
        {
          "name": "",
          "type": "address"
        }
      ],
      "payable": false,
      "stateMutability": "view",
      "type": "function"
    }
  ],
  "bytecode": "0x6060604052341561000f57600080fd5b6104cb8061001e6000396000f300606060405260043610610057576000357c0100000000000000000000000000000000000000000000000000000000900463ffffffff1680630bdcb6951461005c57806345dd9850146100b95780639d129cf41461016b575b600080fd5b341561006757600080fd5b6100b7600480803590602001908201803590602001908080601f016020809104026020016040519081016040528093929190818152602001838380828437820191505050505050919050506101ce565b005b34156100c457600080fd5b6100f0600480803573ffffffffffffffffffffffffffffffffffffffff16906020019091905050610292565b6040518080602001828103825283818151815260200191508051906020019080838360005b83811015610130578082015181840152602081019050610115565b50505050905090810190601f16801561015d5780820380516001836020036101000a031916815260200191505b509250505060405180910390f35b341561017657600080fd5b61018c600480803590602001909190505061037b565b604051808273ffffffffffffffffffffffffffffffffffffffff1673ffffffffffffffffffffffffffffffffffffffff16815260200191505060405180910390f35b60008060003373ffffffffffffffffffffffffffffffffffffffff1673ffffffffffffffffffffffffffffffffffffffff1681526020019081526020016000209050818160000190805190602001906102289291906103ba565b50600180805480600101828161023e919061043a565b9160005260206000209001600033909190916101000a81548173ffffffffffffffffffffffffffffffffffffffff021916908373ffffffffffffffffffffffffffffffffffffffff16021790555050505050565b61029a610466565b6000808373ffffffffffffffffffffffffffffffffffffffff1673ffffffffffffffffffffffffffffffffffffffff1681526020019081526020016000206000018054600181600116156101000203166002900480601f01602080910402602001604051908101604052809291908181526020018280546001816001161561010002031660029004801561036f5780601f106103445761010080835404028352916020019161036f565b820191906000526020600020905b81548152906001019060200180831161035257829003601f168201915b50505050509050919050565b60018181548110151561038a57fe5b90600052602060002090016000915054906101000a900473ffffffffffffffffffffffffffffffffffffffff1681565b828054600181600116156101000203166002900490600052602060002090601f016020900481019282601f106103fb57805160ff1916838001178555610429565b82800160010185558215610429579182015b8281111561042857825182559160200191906001019061040d565b5b509050610436919061047a565b5090565b81548183558181151161046157818360005260206000209182019101610460919061047a565b5b505050565b602060405190810160405280600081525090565b61049c91905b80821115610498576000816000905550600101610480565b5090565b905600a165627a7a72305820a94160d40fd41cc76e64c73d9e4283ead5d769bd643edf73553cfb20df1d210c0029",
  "source": "pragma solidity ^0.4.2;\r\n\r\n\r\ncontract Adoption {  \r\n\r\n    struct Man {\r\n        \r\n        string hashcode;\r\n    }\r\n    \r\n    mapping (address => Man) Mans;\r\n    address[] public ManAccts;\r\n\r\n    function saveHashcode(string _hashcode){\r\n       \r\n        var man = Mans[msg.sender];\r\n\r\n        man.hashcode = _hashcode;\r\n\r\n        ManAccts.push(msg.sender)-1;\r\n\r\n    } \r\n\r\n    function getHashcode(address _address) view public returns (string) {\r\n        return (Mans[_address].hashcode);\r\n    }\r\n     \r\n}\r\n",
  "sourcePath": "F:\\pet shop\\ex\\contracts\\Adoption.sol",
  "compiler": {
    "name": "solc",
    "version": "0.4.18+commit.9cf6e910.Emscripten.clang"
  },
  "schemaVersion": "1.0.1",
  "updatedAt": "2018-03-14T10:10:53.946Z"
}